:020000040800F2
:10000000E004002001010008531600083115000823
:1000100051160008210200086519000800000000C0
:100020000000000000000000000000007B16000837
:10003000590200080000000079160008A516000803
:100040001B0100081B0100081B0100081B01000820
:100050001B0100081B0100081B0100081B01000810
:100060001B0100081B0100081B0100081B01000800
:100070001B0100081B0100081B01000825020008E5
:100080001B0100081B0100081B0100081B010008E0
:100090001B0100081B0100081B0100081B010008D0
:1000A0001B0100081B0100081B0100081B010008C0
:1000B0001B0100081B0100081B0100081B010008B0
:1000C0001B0100081B0100081B0100081B010008A0
:1000D0001B0100081B0100081B0100081B01000890
:1000E0001B0100081B0100081B010008DFF80CD0F1
:1000F00000F02EF800480047AD190008E004002089
:100100000648804706480047FEE7FEE7FEE7FEE7B1
:10011000FEE7FEE7FEE7FEE7FEE7FEE7151700084D
:10012000ED00000830B50B460146002020220124D6
:1001300009E021FA02F59D4205D303FA02F5491BB5
:1001400004FA02F52844151EA2F10102F1DC30BDCB
:10015000064C074D06E0E06840F0010394E8070014
:1001600098471034AC42F6D3FFF7C4FF881B000851
:10017000A81B0008B0B5044600688168C90719D0FB
:10018000816821F00101816000F0A8FC054620682B
:100190008068C0070ED000F0A1FC401B0328F6D3F6
:1001A000A06A40F01000A062E06A40F00100E06246
:1001B0000120B0BD0020B0BDBCB5044600200190B8
:1001C00021688A68D20729D1886840F001008860D8
:1001D000734874490068B0FBF1F001E00198013800
:1001E000019001980028F9D100F078FC05462068BC
:1001F0008068C00711D100F071FC401B0328F6D3C2
:10020000A06A40F01000A062002084F82400E06A98
:1002100040F00100E062012000E0002002B0B0BD2B
:10022000FEE70000014800F079BA00BF540000204A
:1002300010B5D0E90FCE012404FA0EF4CCF8044036
:100240000468636040681028084608BF1046A06034
:1002500008BF0A46E26010BD7047704710B50A4CEF
:10026000204600F0FDF920460A2100F059F9204609
:1002700000F09AF8054C00F57A71606004A001F076
:10028000ADFB0020208010BD2400002018000020BD
:1002900025640D0A0000000078B50022009290F855
:1002A0002420012A01D102215BE0012280F82420D0
:1002B0004B68062B08D8D0F800C003EB83035D1F02
:1002C000624652F8344F11E0D0F800C00C2B624661
:1002D00006D852F8304F03EB8303A3F1230505E062
:1002E00003EB830352F82C4FA3F141050B681F2643
:1002F00003FA05FE06FA05F5092B24EA05044EEA81
:10030000040616601CD903EB4306DCF80C20896850
:1003100007251E3EB14005FA06F6B2431143CCF85C
:100320000C1023F00101102917D11C49A1F108027A
:10033000944519D0816A41F02001816201210DE0CC
:1003400003EB43020723DCF810608968934026EA38
:10035000030391401943CCF810100021002280F8CB
:100360002420084601B070BD0A681202F5D40A685C
:10037000102B42F400020A60EFD1B349094A096820
:10038000B1FBF2F101EB8101490001E00099013973
:10039000009100990029F9D1DFE700BF082401404E
:1003A0000C00002040420F000068C06C7047000045
:1003B000D0B370B50646044656F8280F30B9002071
:1003C00084F82400E062204600F07CF82046FFF725
:1003D000D1FEA26AA16A48BB12F0100026D141F2F8
:1003E0000210221D21EA00000230A06207CAE36960
:1003F0006569B1F5807F40EA0300A1F10103B3FA1A
:1004000083F340EA420C4FEA53100B4618BF030235
:10041000012D16D172B1A06A40F02000A062E06AFE
:1004200040F00100E0620CE00120704741F0100153
:1004300001203CE0A0691F4A02EB4030184340F421
:1004400000632268B1F5807F506820F4694040EA7B
:100450000300194B5060906800EA030040EA0C006A
:10046000906001D0012904D12069144901EB0051A9
:1004700000E00021D06A20F4700008431049D062E7
:1004800090680840604506D100200122E062A16A20
:1004900062F301010BE0A06A40F0100020F00200BE
:1004A000A06254F82C0F40F0010101202646316073
:1004B00070BD00BF00E0FFFFFDF7E1FF0000F0FFAF
:1004C000FE0E1FFFFEB501460020CDE90400CDE978
:1004D00002001148096800F5E052914219D10F4914
:1004E0000A6842F400720A600A6802F4007201921B
:1004F000019A0A6842F004020A60096801F00401E6
:1005000001910199032103910221029102A900F0B6
:100510000DFA06B080BD00BF00080140181002406F
:100520002DE9FC4100260D460446019600F0D6FA5E
:10053000804620688168C90528D44168C90503D46C
:10054000C16A11F4700F29D03F480668022000F0FC
:100550005FFB21683D4BB6FBF0F00A691A4203D1FC
:10056000CA683B4B1A4229D00A693A4B1A4203D156
:10057000CA68394B1A422CD00F69384BFC221F42F3
:1005800028D1C968194208BF542223E084F82460A6
:10059000A06A40F02000A062012052E06F1C09E038
:1005A00047B1002D45D000F099FAA0EB0800A84211
:1005B0003FD8206801688907F2D51EE00B69254EF7
:1005C0002922334206D1C968234B194208BF14229D
:1005D00000E0542202FB00F76E1C0AE036B145B37E
:1005E00000F07CFAA0EB0800A84222D80198013064
:1005F00001900198B842F1D320686FF012010160B8
:10060000A16A41F40071A162806800F46020B0F535
:10061000602F0CD1E06850B9A06A20F48070A0620D
:10062000A06AC0045EBFA06A40F00100A062002082
:1006300007E0002084F82400A06A40F00400A062D3
:10064000032002B0BDE8F0810C0000202449922470
:10065000244992009224491292244900499224008C
:10066000B0B5044690F82400012804BF0220B0BDB4
:10067000012084F824002046FFF79EFD18B10021D8
:1006800084F82410B0BD2068A16A234D40F20132E5
:10069000914305F57F7201F580719042A16205D00A
:1006A000A16A21F48011A162416808E0296811F46F
:1006B000702FF5D0A16A41F48011A1622968490523
:1006C00004D5A16A012363F30D31A162A16A00235D
:1006D000C9044FF0000144BFE16A21F0060184F82B
:1006E0002430E1626FF002010160816801F4602151
:1006F000B1F5602F05D1904207D1296811F4702F10
:1007000003D0816841F4801102E0816841F4A001C6
:1007100081600020B0BD00BF0424014010B5D0E9C5
:100720000FCEDCF8002001680B685C071ED504249E
:1007300004FA0EF4144019D00A68434B92065EBFC7
:100740000A6822F004020A603E4A99425AD03F4B9E
:10075000994246D03E4B994245D03E4B994245D0B6
:100760003D4B994245D14FF480234CE09C0721D565
:10077000022404FA0EF414401CD00A68920606D42F
:100780000A6822F00A020A60012280F821202E4B1A
:100790002C4A99423AD02D4B994239D02C4B994250
:1007A00038D02C4B994238D02B4B994238D14FF44A
:1007B00000333DE01B0744D5082303FA0EF31A402B
:1007C00008BF10BD0A6822F00E020A60012101FA7A
:1007D0000EF2CCF8042081634FF480710184016B28
:1007E0002BE040230FE04FF480630CE04FF4804394
:1007F00009E002F168044FF08063A14208BF4FF4A2
:10080000800300E004231360C16A16E002230FE0B6
:1008100020230DE04FF400730AE04FF4005307E08B
:1008200002F168044FF00073A14208BF4FF40013B7
:100830000021136080F82010816A11B1BDE81040DA
:10084000084710BD04000240080002401C0002409E
:1008500030000240440002405800024040B32DE9FD
:10086000F043154990E80C01144F00F10C0E9EE87E
:100870007050894617441421B7FBF1F143F6F07725
:100880008900C0E90F911168B943194341EA080191
:1008900021432943314341EA0C0141EA0E01116031
:1008A00000214FF4807281630284BDE8F04300E0D0
:1008B00001210846704700BF00000240F8FFFDBF5D
:1008C00010B5044690F82000012820D0012084F8BB
:1008D000200094F82100012816D10020A0630220F6
:1008E00084F82100D4F800C0DCF8000020F00100FA
:1008F000CCF800002046FFF79BFC2068E26A016804
:100900003AB141F00E010AE0002084F820000220F4
:1009100010BD21F004010160016841F00A0101608D
:10092000016841F001010160002010BD2DE9FC4F7C
:10093000594A04234FF0000B4FF001084FF00F0EFF
:100940004FF000090025904208BF03230093102DAB
:1009500008BFBDE8FC8F0A6808FA05F73A4200F0C4
:1009600096804A68032A16D9112A24D0122A26D042
:100970004C4B9A4213D04C4B9A4210D04B4B9A425C
:100980000DD04B4B9A420AD04A4B9A4207D04A4B61
:100990009A4204D020E0DFE802F00216191D8A68AE
:1009A00032B1012A14BF476107614FF0080913E013
:1009B0004FF0040910E0CA6802F104090CE0CA68AB
:1009C00002F10C0908E0D1F80C9005E0CA6802F1C8
:1009D000080901E04FF000095A460446082D28BFD7
:1009E000203A28BF043426680EFA02F309FA02F20C
:1009F00026EA03031A432260CA79D20647D5654A1C
:100A00000BF00C0C1346126842F001021A601A68CF
:100A10000EFA0CF302F001020192204A019CAC088C
:100A2000A2F57E7656F8242022EA030A234A904251
:100A300008D0234A904207D0224A009B904208BF28
:100A4000022302E0002300E0012303FA0CF242EA51
:100A50000A0246F82420114E4A68D303336854BF73
:100A6000BB433B4333609303736854BFBB433B4377
:100A70007360D302B36854BFBB433B439202B3607D
:100A8000074A1346126854BFBA433A431A600BF13F
:100A9000040B01355BE700BF001401400004014076
:100AA0000C04014000001110000012100000211081
:100AB0000000221000003110000032100008014038
:100AC000000C014000100140C2685140C1607047F5
:100AD000002A08BF0904016170470000054800684A
:100AE000704700BF1B48034900780A68104408603B
:100AF000704700BFD800002080B50748016841F06A
:100B000010010160032000F073F8002000F006F8E7
:100B100000F024F8002080BD0020024070B50D4E8A
:100B200004464FF47A713078B1FBF0F00A49096855
:100B3000B1FBF0F000F0B6FB01250F2C08D838B956
:100B40004FF0FF3021460022002500F033F874609A
:100B5000284670BD040000200C00002082B00D4823
:100B60000222016841F001010160016801F0010108
:100B700001910199416841F080514160406800F065
:100B80008050009000980448016862F31A61016087
:100B900002B07047181002400400014000F01F012D
:100BA0000122400902FA01F1014A42F8201070477F
:100BB00000E100E080B5144B1B68C3F3022CBCF1CC
:100BC000030E8CF007034FF0FF3C38BF4FF0000ED0
:100BD000042B28BF04230CFA03F399430CFA0EF3F9
:100BE00001FA0EF19A431143BDE8804000F032BD96
:100BF00005494FF6FF030A681A4060F30A220348CA
:100C000010430860704700BF0CED00E00000FA05DB
:100C1000012811D0022822D010284ED128494A6834
:100C20000868C00149D5C2F3834026A3D203185CEB
:100C300024D4DC4A50432AE02149086A00F4407277
:100C4000B2F5407F2CD0B2F5007F30D0B2F5807F76
:100C500033D1800744BF4FF4004070472DE080B58A
:100C600000F068F9164902224968C1F3813102EBAC
:100C70004101B0FBF1F0BDE8804070474A6815A320
:100C8000C2F340429A5CC14BB3FBF2F25043496855
:100C9000490248BF704740000321B0FBF1F07047A4
:100CA0000868800344BF4FF22440704705E0486A5B
:100CB000800744BF49F6404070470020704700BF9E
:100CC0000010024002030405060708090A0B0C0D78
:100CD0000E0F1010010200002DE9FC4104460078BF
:100CE000A94EC00756D0B069C0000BD4B0694FF010
:100CF000010840F08050B061B06900F08050019070
:100D0000019801E04FF000082D4F3868C00510D45D
:100D1000386840F480703860FFF7E0FE05463868B8
:100D2000C00506D4FFF7DAFE401B6428F7D903207C
:100D300042E0F06910F440701ED0616801F4407127
:100D4000884219D01F49F06901220A6000220A6016
:100D500020F44071C007F1610ED0FFF7BFFE0546D9
:100D600041F28837F069800706D4FFF7B7FE411BD0
:100D70000320B942F6D91FE0F0696168B8F1000FAD
:100D800020F4407040EA0100F0611EBFB06920F01D
:100D90008050B0612068810705D53168A26821F4D0
:100DA000404111433160C00605D53068E16820F448
:100DB000800008433060002002B0BDE8F08100BF31
:100DC00000700040400442422DE9F8430D4652496C
:100DD0000446086800F00700A84209D2086820F01D
:100DE000070028430860086800F00700A84253D1B4
:100DF0002068654F8946810711D5410742BF396890
:100E000041F4E0613960010742BF396841F4605143
:100E100039603968A26821F0F00111433960C007D8
:100E200033D1D9F8000000F00700A8420CD9D9F856
:100E3000000020F007002843C9F80000D9F800009E
:100E400000F00700A84227D12068410705D539687E
:100E5000E26821F4E06111433960000706D5386883
:100E6000216920F4605040EAC100386000F070F859
:100E700039682A4A0024C1F30311515CC840324941
:100E800008600020FFF74AFE07E06068012808D1EB
:100E900057F8041C89030DD40124204601B0BDE895
:100EA000F08357F8041C022802D18901F4D501E02F
:100EB0008907F1D5396821F0030108433860FFF74D
:100EC0000DFE0646606841F2883801280CD00228E1
:100ED00015D1386800F00C000828A2D0FFF7FEFDFD
:100EE000801B4045F5D914E0386800F00C00042858
:100EF00097D0FFF7F3FD801B4045F5D909E038682E
:100F000010F00C0F3FF48DAFFFF7E8FD801B40455C
:100F1000F5D90324C1E700BF00200240701B000880
:100F2000DE481949094A00680968C1F30221515C89
:100F3000C8407047D9481449044A00680968C1F399
:100F4000C221515CC84070470C000020801B000883
:100F500010B50D4C0D48226802F00C03082B18BF89
:100F600010BDC2F383430AA1CB5CD10302D40D4868
:100F7000584310BD21680AA25843C1F34041515C57
:100F8000B0FBF1F010BD00BF0410024000127A0067
:100F900002030405060708090A0B0C0D0E0F1010BA
:100FA0000102000000093D002DE9FC4104460078E3
:100FB000B84EC00749D0706800F00C00042817D064
:100FC000706800F00C00082802D17068C0030FD4CC
:100FD000606898B1B0F5803F06D03168B0F5A02FB9
:100FE00020D141F480203060306840F480301FE030
:100FF0003068800329D5606838BB07E1306820F489
:1010000080303060306820F480203060FFF766FD6B
:1010100005463068800318D5FFF760FD401B642843
:10102000F7D9E2E021F480303060306820F480208D
:101030003060FFF753FD05463068800305D4FFF7A5
:101040004DFD401B6428F7D9CFE0207880072BD5D1
:10105000706810F00C0F07D0706800F00C000828C2
:1010600009D17068C00306D43068800715D520699F
:10107000012812D0CAE02169874800297CD00121CB
:101080000160FFF72BFD05463068800705D4FFF7A8
:1010900025FD401B0228F7D9A7E03068616920F0E0
:1010A000F80040EAC1003060207800072ED5A06922
:1010B00078B179480121C0F88014FFF70FFD05468B
:1010C000706A800715D4FFF709FD401B0228F7D985
:1010D0008BE071480021C0F88014FFF7FFFC054643
:1010E000706A800712D5FFF7F9FC401B0228F7D978
:1010F0007BE06A484FF4FA510068B0FBF1F00190D0
:1011000000BF0198411E00280191F9D120784007C5
:1011100074D5F069C0000BD4F0694FF0010840F0BD
:101120008050F061F06900F080500090009801E07C
:101130004FF000085A4F3868C0050FD4386840F4A3
:1011400080703860FFF7CAFC05463868C00505D4D2
:10115000FFF7C4FC401B6428F7D946E0E068D0B133
:10116000012805D0316A05282BD141F004003062F6
:10117000306A40F001002AE000210160FFF7AEFC78
:101180000546306880077FF58FAFFFF7A7FC401B4F
:101190000228F6D929E0306A20F001003062306A76
:1011A00020F004003062FFF799FC054641F28837D1
:1011B000306A80071BD5FFF791FC401BB842F7D976
:1011C00013E021F001003062306A20F00400306248
:1011D000FFF784FC054641F28837306A800706D461
:1011E000FFF77CFC401BB842F7D903204FE0B8F171
:1011F000000F1EBFF06920F08050F061E769002FFA
:1012000044D0706800F00C00082801D101203EE0B5
:101210002149002088460866FFF760FC0546022F3A
:101220000AD147463068800110D5FFF757FC411BB3
:1012300003200229F6D92AE03068800126D5FFF77D
:101240004DFC411B03200329F6D320E0206AB0F5B2
:10125000803F05D17168A26821F4003111437160AB
:101260007168626A104321F47411084370600120B0
:101270003866FFF733FC04463068800106D4FFF778
:101280002DFC011B03200229F6D900E0002002B04A
:10129000BDE8F08100100240000042420C00002036
:1012A00000700040411E0020B0EB116F1CBF0120F8
:1012B0007047044AF023516003490B700721906086
:1012C0001160704710E000E023ED00E0704750B37C
:1012D00010B5044690F8390028B9002084F8380089
:1012E000204600F023F8242084F839002068C168E3
:1012F00021F40051C160204600F096FA206801698F
:1013000021F490410161416921F02A014161C168E4
:1013100041F40051C16000202021E06384F83910BD
:1013200084F83A1010BD0120704700002DE9F0410B
:1013300086B000270446264DCDE90477CDE9027733
:10134000216805F5405081423ED1B24E0DF10808AA
:101350004146306840F480403060306800F480409E
:1013600001900198306840F004003060306800F06F
:1013700004000190019803200590022003904FF48F
:10138000007002902846FFF7D1FA4FF48060CDE953
:101390000377414602902846FFF7C8FA0D4DA6F59F
:1013A0007C624FF440508021C5E90027C5E90271F5
:1013B000C5E90477C5E906702846FFF74FFA08B17A
:1013C000FEF74BFF65636C6206B0BDE8F08100BFBD
:1013D0000008014054000020BCB5054690F83A00D2
:1013E000202807D113460A4631B12BB195F83800B1
:1013F000012803D102242EE001242CE00024012046
:10140000DFF858C0DFF858E01649EC63AB85AA62F4
:1014100085F83800222085F83A00686BC0E90A1E7A
:10142000C0E90CC429680431FFF74AFA019428681E
:101430000168019141680191019985F83840C168BE
:1014400041F48071C160416941F00101416141692C
:1014500041F040014161204602B0B0BD7D17000857
:1014600007180008D117000800687849884218BF9B
:101470007047754801490122FFF7AEBF18000020F0
:1014800070472DE9F041044690F8390020280AD130
:101490000E460120002949D01746002A46D094F86C
:1014A0003800012802D10220BDE8F08100201D464D
:1014B000E063012084F83800212084F83900FFF728
:1014C0000DFB8046E784A7841DE0E08C8021424626
:1014D0002B460138E0842046A76800F017FAB7F5DC
:1014E000805F0BD1C8B9318820686FF35F214160FC
:1014F0002069002814BF0136023604E068B920686C
:1015000016F8011B4160E08C0028DED12046402106
:1015100042462B4600F0FAF910B10320BDE8F081F5
:101520000020202184F8380084F83910BDE8F081CB
:10153000FEE70000BFB510484FF4602100240125EC
:10154000C1610E49C0E90014C0E90244C0E9045475
:101550000394CDE90144FEF72BFF08B1FEF77DFEB1
:10156000054801A90394CDE90155FEF795FE08B1A0
:10157000FEF773FEBFBD00BF240000200024014021
:10158000E0B50A480022016841F001010160002134
:10159000006800F00100019001980F20FFF70AFB9E
:1015A0000F20BDE88C40FFF7F9BA00BF14100240CD
:1015B0007FB518483A4C00224FF4005500260168C8
:1015C00041F010010160016801F0100100910099E3
:1015D000016841F020010160016801F020010091E3
:1015E0000099016841F0040101604FF40051006866
:1015F00000F00400009000982046FFF769FA0220EE
:101600006946CDE902600120CDE900502046FFF790
:101610008DF97FBD1810024010B5EE48B84C4FF45C
:10162000E13300210C22C0E90043C0E90211C0E906
:101630000412C0E90611FFF74AFE002814BFBDE8F6
:10164000104010BDFEF709BE980000200038014090
:10165000FEE7704710B5064A00F00F030028054C5E
:1016600002444FEA0110B8BF1A19107010BD00BF34
:1016700000E400E014ED00E070477047074801689F
:10168000002902DB0139016070474FF47A71016073
:1016900003484FF40051FFF717BA00BF14000020B1
:1016A0000010014080B5FFF71DFAFFF7E7FFBDE826
:1016B000804000F055B8B0B594B000244FF4E0106D
:1016C00002250121CDE90F44CDE90D440494CDE973
:1016D000024413904FF48030129011950E910C94A7
:1016E000CDE90A100AA8FFF75FFC4FF48060099467
:1016F000022108900F20CDE90654059005A8FFF7B8
:1017000063FB4FF40040039001A80195FFF7E4FA52
:1017100014B0B0BD0E480F4A016841F001010160EC
:10172000416811400C4A4160016811400160016844
:1017300021F480210160416821F4FE0141604FF4F1
:101740001F01816005484FF000610160704700BFD4
:10175000001002400000FFF8FFFFF6FE08ED00E079
:101760000548016801390160C8BF704786490122F8
:101770000A700A21016070471000002010B5446A09
:101780002068416994F83920212A0BD111F0800199
:1017900008D00021E184C16821F0C001C16020218E
:1017A00084F83910406994F83A10222907D110F0D2
:1017B000400004D00020E085204600F027F8E06BD0
:1017C00040F01000E0632046BDE81040FFF77EBD0A
:1017D0000168406A0968890648BFFFF745BE0021D5
:1017E000C1850168CA6822F48072CA604A6922F021
:1017F00001024A614A6922F040024A61202180F8D0
:101800003A10FFF731BE406AFFF73ABE0168CA6876
:1018100022F49072CA604A6922F001024A612021D2
:1018200080F83A10704700002DE9F0470446006840
:1018300041F20C660169E26821F4405111430161F3
:10184000A168D4E90423C7681143B7431943394356
:10185000C1604169A26921F4407111434161284985
:10186000884214BFDFF89CA0DFF89CA0D047D4F8D2
:1018700004908046D04767680646D04761681925BE
:10188000BF00684306FB05F38900B3FBF7F3B0FB29
:10189000F1F06421B0FBF1F202FB1102181A4FEAD9
:1018A00089031044322202EB001008FB05F2B0FB62
:1018B000F1F0B2FBF3F200F0F000B2FBF1F100EB5B
:1018C0000116D047616868438900B0FBF1F7D04743
:1018D0006168684364228900B0FBF1F0B0FBF2F369
:1018E000391A03FB12000844322101EB0010216871
:1018F000B0FBF2F000F00F0030438860BDE8F087E5
:1019000000380140210F0008350F00082DE9F04193
:101910001D4690460F4604465E1C2068016839400B
:10192000B94204BF0020BDE8F081002EF5D035B1EA
:10193000FFF7D4F8A0EB0800A842EED92068C168F0
:1019400021F4D071C160416921F001014161202081
:10195000002184F8390084F8381084F83A00032014
:10196000BDE8F081FEE7000010B5074C20780128A3
:1019700018BF10BD054801783129417008BFFEF736
:101980006DFC0020207010BD2000002018000020F9
:101990001CB504468DF807000E480DF10701012221
:1019A0000A23FFF76EFD204602B010BDFFF7A4F832
:1019B000FFF781FEFFF7FCFDFFF7E2FDFFF7BAFD41
:1019C000FFF72AFE034804490122FFF705FDFFF750
:1019D000CBFFFCE798000020180000200FB4054B57
:1019E00010B503A9044A029800F018F810BC5DF87D
:1019F00014FB0000911900080000002002E008C854
:101A0000121F08C1002AFAD170477047002001E078
:101A100001C1121F002AFBD1704700002DE9FF4FC2
:101A200089B09B460446002506E025280BD05A467F
:101A30000B999047641C6D1C20780028F5D10DB0DF
:101A40002846BDE8F08F0027B8460122474900E04C
:101A5000074314F8013F203B02FA03F00842F7D194
:101A600020782E2819D114F8010F47F004072A28EE
:101A70000ED06FF02F022078A0F1300109290CD888
:101A800008EB880102EB410100EB0108641CF2E75E
:101A90000A98641C50F8048B0A9020780028CED055
:101AA000642808D0692806D075281ED05A460B999C
:101AB00090476D1C58E00A994FF00A0901C90A9134
:101AC000002802DA40422D2102E0390504D52B21FD
:101AD0008DF82010012103E0F90704D02021F7E759
:101AE0008A4608AE0DE00021FAE70A994FF00A098C
:101AF00001C90A91F7E74946FEF714FB303106F8B1
:101B0000011D0028F7D1ADEB060000F12009780790
:101B100001D44FF00108C84502DDA8EB090000E040
:101B200000208046002706E008A85A46C05D0B99B1
:101B300090476D1C7F1C5745F6DB04E030205A4669
:101B40000B9990476D1CB8F10001A8F10108F5DC74
:101B500005E016F8010B5A460B9990476D1CB9F138
:101B60000001A9F10109F4DC641C65E70928010002
:101B7000000000000000000001020304060708093D
:101B80000000000001020304A81B00080000002060
:101B900018000000FC190008C01B000818000020F5
:101BA000C80400000C1A000800000000010000003A
:101BB0001000000000A24A0414000000E803000026
:04000005080000ED02
:00000001FF
